{
    "contractName": "FlightSuretyApp",
    "abi": [
        {
            "inputs": [
                {
                    "internalType": "address",
                    "name": "dataContract",
                    "type": "address"
                }
            ],
            "stateMutability": "nonpayable",
            "type": "constructor"
        },
        {
            "anonymous": false,
            "inputs": [
                {
                    "indexed": false,
                    "internalType": "address",
                    "name": "airline",
                    "type": "address"
                },
                {
                    "indexed": false,
                    "internalType": "string",
                    "name": "flight",
                    "type": "string"
                },
                {
                    "indexed": false,
                    "internalType": "uint256",
                    "name": "timestamp",
                    "type": "uint256"
                },
                {
                    "indexed": false,
                    "internalType": "uint8",
                    "name": "status",
                    "type": "uint8"
                }
            ],
            "name": "FlightStatusInfo",
            "type": "event"
        },
        {
            "anonymous": false,
            "inputs": [
                {
                    "indexed": false,
                    "internalType": "address",
                    "name": "airline",
                    "type": "address"
                },
                {
                    "indexed": false,
                    "internalType": "string",
                    "name": "flight",
                    "type": "string"
                },
                {
                    "indexed": false,
                    "internalType": "uint256",
                    "name": "timestamp",
                    "type": "uint256"
                },
                {
                    "indexed": false,
                    "internalType": "uint8",
                    "name": "status",
                    "type": "uint8"
                }
            ],
            "name": "OracleReport",
            "type": "event"
        },
        {
            "anonymous": false,
            "inputs": [
                {
                    "indexed": false,
                    "internalType": "uint8",
                    "name": "index",
                    "type": "uint8"
                },
                {
                    "indexed": false,
                    "internalType": "address",
                    "name": "airline",
                    "type": "address"
                },
                {
                    "indexed": false,
                    "internalType": "string",
                    "name": "flight",
                    "type": "string"
                },
                {
                    "indexed": false,
                    "internalType": "uint256",
                    "name": "timestamp",
                    "type": "uint256"
                }
            ],
            "name": "OracleRequest",
            "type": "event"
        },
        {
            "inputs": [],
            "name": "AIRLINE_REGISTRATION_FEE",
            "outputs": [
                {
                    "internalType": "uint256",
                    "name": "",
                    "type": "uint256"
                }
            ],
            "stateMutability": "view",
            "type": "function"
        },
        {
            "inputs": [],
            "name": "INSURANCE_PRICE_LIMIT",
            "outputs": [
                {
                    "internalType": "uint256",
                    "name": "",
                    "type": "uint256"
                }
            ],
            "stateMutability": "view",
            "type": "function"
        },
        {
            "inputs": [],
            "name": "MIN_MULTIPARTY_AIRLINE",
            "outputs": [
                {
                    "internalType": "uint8",
                    "name": "",
                    "type": "uint8"
                }
            ],
            "stateMutability": "view",
            "type": "function"
        },
        {
            "inputs": [],
            "name": "MULTIPARTY_QUOTA",
            "outputs": [
                {
                    "internalType": "uint8",
                    "name": "",
                    "type": "uint8"
                }
            ],
            "stateMutability": "view",
            "type": "function"
        },
        {
            "inputs": [],
            "name": "REGISTRATION_FEE",
            "outputs": [
                {
                    "internalType": "uint256",
                    "name": "",
                    "type": "uint256"
                }
            ],
            "stateMutability": "view",
            "type": "function"
        },
        {
            "inputs": [
                {
                    "internalType": "address",
                    "name": "airline",
                    "type": "address"
                },
                {
                    "internalType": "string",
                    "name": "flight",
                    "type": "string"
                },
                {
                    "internalType": "uint256",
                    "name": "timestamp",
                    "type": "uint256"
                }
            ],
            "name": "fetchFlightStatus",
            "outputs": [],
            "stateMutability": "nonpayable",
            "type": "function"
        },
        {
            "inputs": [],
            "name": "getMyIndexes",
            "outputs": [
                {
                    "internalType": "uint8[3]",
                    "name": "",
                    "type": "uint8[3]"
                }
            ],
            "stateMutability": "view",
            "type": "function"
        },
        {
            "inputs": [],
            "name": "isOperational",
            "outputs": [
                {
                    "internalType": "bool",
                    "name": "",
                    "type": "bool"
                }
            ],
            "stateMutability": "view",
            "type": "function"
        },
        {
            "inputs": [
                {
                    "internalType": "string",
                    "name": "airlineName",
                    "type": "string"
                },
                {
                    "internalType": "address",
                    "name": "airlineAddress",
                    "type": "address"
                }
            ],
            "name": "registerAirline",
            "outputs": [
                {
                    "internalType": "bool",
                    "name": "success",
                    "type": "bool"
                },
                {
                    "internalType": "uint256",
                    "name": "votes",
                    "type": "uint256"
                }
            ],
            "stateMutability": "nonpayable",
            "type": "function"
        },
        {
            "inputs": [
                {
                    "internalType": "string",
                    "name": "flight",
                    "type": "string"
                },
                {
                    "internalType": "address",
                    "name": "airlineAddress",
                    "type": "address"
                },
                {
                    "internalType": "uint256",
                    "name": "timestamp",
                    "type": "uint256"
                }
            ],
            "name": "registerFlight",
            "outputs": [],
            "stateMutability": "nonpayable",
            "type": "function"
        },
        {
            "inputs": [],
            "name": "registerOracle",
            "outputs": [],
            "stateMutability": "payable",
            "type": "function"
        },
        {
            "inputs": [
                {
                    "internalType": "uint8",
                    "name": "index",
                    "type": "uint8"
                },
                {
                    "internalType": "address",
                    "name": "airline",
                    "type": "address"
                },
                {
                    "internalType": "string",
                    "name": "flight",
                    "type": "string"
                },
                {
                    "internalType": "uint256",
                    "name": "timestamp",
                    "type": "uint256"
                },
                {
                    "internalType": "uint8",
                    "name": "statusCode",
                    "type": "uint8"
                }
            ],
            "name": "submitOracleResponse",
            "outputs": [],
            "stateMutability": "nonpayable",
            "type": "function"
        },
        {
            "inputs": [],
            "name": "test",
            "outputs": [
                {
                    "internalType": "address",
                    "name": "caller1",
                    "type": "address"
                },
                {
                    "internalType": "uint8",
                    "name": "caller2",
                    "type": "uint8"
                }
            ],
            "stateMutability": "view",
            "type": "function"
        }
    ],
    "bytecode": "60806040526000805460ff19166001908117909155805460ff60a01b1916905534801561002b57600080fd5b506040516110e93803806110e983398101604081905261004a91610086565b60008054610100600160a81b0319163361010002179055600180546001600160a01b0319166001600160a01b03929092169190911790556100b6565b60006020828403121561009857600080fd5b81516001600160a01b03811681146100af57600080fd5b9392505050565b611024806100c56000396000f3fe6080604052600436106100c25760003560e01c8063872d6be41161007f578063d8f73ca511610059578063d8f73ca5146101e3578063dcb2dedb146101ff578063f83f11c014610214578063f8a8fd6d1461023457600080fd5b8063872d6be414610179578063c10f2700146101a0578063cd905dff146101c057600080fd5b80630e2c4129146100c757806329e18e5d14610103578063339d25901461012d578063538a0d9c146101375780635f1cc0e61461015757806364b4f75114610103575b600080fd5b3480156100d357600080fd5b506100e76100e2366004610c2f565b61026a565b6040805192151583526020830191909152015b60405180910390f35b34801561010f57600080fd5b5061011f670de0b6b3a764000081565b6040519081526020016100fa565b6101356102e1565b005b34801561014357600080fd5b50610135610152366004610c83565b610396565b34801561016357600080fd5b5061016c610464565b6040516100fa9190610e5d565b34801561018557600080fd5b5061018e600481565b60405160ff90911681526020016100fa565b3480156101ac57600080fd5b506101356101bb366004610cfc565b61052b565b3480156101cc57600080fd5b5060005460ff1660405190151581526020016100fa565b3480156101ef57600080fd5b5061011f678ac7230489e8000081565b34801561020b57600080fd5b5061018e600281565b34801561022057600080fd5b5061013561022f366004610bd8565b610783565b34801561024057600080fd5b50610249610824565b604080516001600160a01b03909316835260ff9091166020830152016100fa565b600154604051630e2c412960e01b815260009182916001600160a01b0390911690630e2c4129906102a390889088908890600401610e91565b600060405180830381600087803b1580156102bd57600080fd5b505af11580156102d1573d6000803e3d6000fd5b5060009350505050935093915050565b670de0b6b3a764000034101561033e5760405162461bcd60e51b815260206004820152601c60248201527f526567697374726174696f6e206665652069732072657175697265640000000060448201526064015b60405180910390fd5b6000610349336108b9565b6040805180820182526001808252602080830185815233600090815260029092529390208251815460ff191690151517815592519394509092610390918301906003610a20565b50505050565b60005460ff166103f65760405162461bcd60e51b815260206004820152602560248201527f436f6e74726163742069732063757272656e746c79206e6f74206f70657261746044820152641a5bdb985b60da1b6064820152608401610335565b6001546040516314e2836760e21b81526001600160a01b039091169063538a0d9c9061042c908790879087908790600401610ebd565b600060405180830381600087803b15801561044657600080fd5b505af115801561045a573d6000803e3d6000fd5b5050505050505050565b61046c610ab3565b3360009081526002602052604090205460ff166104cb5760405162461bcd60e51b815260206004820152601b60248201527f4e6f74207265676973746572656420617320616e206f7261636c6500000000006044820152606401610335565b3360009081526002602052604080822081516060810192839052926001909101916003918390855b825461010083900a900460ff168152602060019283018181049485019490930390920291018084116104f35790505050505050905090565b3360009081526002602052604090206001015460ff8681169116148061056d57503360009081526002602052604090206001015460ff86811661010090920416145b8061059557503360009081526002602052604090206001015460ff8681166201000090920416145b6105ed5760405162461bcd60e51b815260206004820152602360248201527f496e64657820646f6573206e6f74206d61746368206f7261636c652072657175604482015262195cdd60ea1b6064820152608401610335565b6000858585856040516020016106069493929190610dd0565b60408051808303601f19018152918152815160209283012060008181526003909352912054909150600160a01b900460ff1661069c5760405162461bcd60e51b815260206004820152602f60248201527f466c69676874206f722074696d657374616d7020646f206e6f74206d6174636860448201526e081bdc9858db19481c995c5d595cdd608a1b6064820152608401610335565b600081815260036020908152604080832060ff8616845260019081018352818420805491820181558452919092200180546001600160a01b03191633179055517f43c853095c2752648493c88b4baac4d580d2594ffb00c6f1d4242d844514f7839061070f908790879087908790610e1f565b60405180910390a1600081815260036020818152604080842060ff87168552600101909152909120541061077b577fe23f5229de535c091e3b7bec2665f5d698192d3b31393066e8987b7a05076b6c858585856040516107729493929190610e1f565b60405180910390a15b505050505050565b600061078e3361095f565b90506000818585856040516020016107a99493929190610dd0565b60408051601f19818403018152828252805160209182012060008181526003909252919020805460ff60a01b1933166001600160a81b031990911617600160a01b178155909250907f3ed01f2c3fc24c6b329d931e35b03e390d23497d22b3f90e15b600343e93df1190610772908590899089908990610eed565b6000806000600160009054906101000a90046001600160a01b03166001600160a01b031663f8a8fd6d6040518163ffffffff1660e01b815260040160206040518083038186803b15801561087757600080fd5b505afa15801561088b573d6000803e3d6000fd5b505050506040513d601f19601f820116820180604052508101906108af9190610cdf565b3394909350915050565b6108c1610ab3565b6108c9610ab3565b6108d28361095f565b60ff1680825260208201525b8051602082015160ff90811691161415610908576108fb8361095f565b60ff1660208201526108de565b602081015160ff1660408201525b8051604082015160ff9081169116148061093e57506020810151604082015160ff9081169116145b156109595761094c8361095f565b60ff166040820152610916565b92915050565b60018054600091600a9183918391600160a01b900460ff1690601461098383610f6e565b91906101000a81548160ff021916908360ff16021790555060ff16436109a99190610f2b565b60408051914060208301526bffffffffffffffffffffffff19606088901b16908201526054016040516020818303038152906040528051906020012060001c6109f29190610f8e565b60015490915060fa600160a01b90910460ff161115610a19576001805460ff60a01b191690555b9392505050565b600183019183908215610aa35791602002820160005b83821115610a7457835183826101000a81548160ff021916908360ff1602179055509260200192600101602081600001049283019260010302610a36565b8015610aa15782816101000a81549060ff0219169055600101602081600001049283019260010302610a74565b505b50610aaf929150610ad1565b5090565b60405180606001604052806003906020820280368337509192915050565b5b80821115610aaf5760008155600101610ad2565b80356001600160a01b0381168114610afd57600080fd5b919050565b60008083601f840112610b1457600080fd5b50813567ffffffffffffffff811115610b2c57600080fd5b602083019150836020828501011115610b4457600080fd5b9250929050565b600082601f830112610b5c57600080fd5b813567ffffffffffffffff80821115610b7757610b77610fc6565b604051601f8301601f19908116603f01168101908282118183101715610b9f57610b9f610fc6565b81604052838152866020858801011115610bb857600080fd5b836020870160208301376000602085830101528094505050505092915050565b600080600060608486031215610bed57600080fd5b610bf684610ae6565b9250602084013567ffffffffffffffff811115610c1257600080fd5b610c1e86828701610b4b565b925050604084013590509250925092565b600080600060408486031215610c4457600080fd5b833567ffffffffffffffff811115610c5b57600080fd5b610c6786828701610b02565b9094509250610c7a905060208501610ae6565b90509250925092565b60008060008060608587031215610c9957600080fd5b843567ffffffffffffffff811115610cb057600080fd5b610cbc87828801610b02565b9095509350610ccf905060208601610ae6565b9396929550929360400135925050565b600060208284031215610cf157600080fd5b8151610a1981610fdc565b600080600080600060a08688031215610d1457600080fd5b8535610d1f81610fdc565b9450610d2d60208701610ae6565b9350604086013567ffffffffffffffff811115610d4957600080fd5b610d5588828901610b4b565b935050606086013591506080860135610d6d81610fdc565b809150509295509295909350565b81835281816020850137506000828201602090810191909152601f909101601f19169091010190565b60008151808452610dbc816020860160208601610f42565b601f01601f19169290920160200192915050565b60ff60f81b8560f81b1681526bffffffffffffffffffffffff198460601b16600182015260008351610e09816015850160208801610f42565b6015920191820192909252603501949350505050565b6001600160a01b0385168152608060208201819052600090610e4390830186610da4565b905083604083015260ff8316606083015295945050505050565b60608101818360005b6003811015610e8857815160ff16835260209283019290910190600101610e66565b50505092915050565b604081526000610ea5604083018587610d7b565b905060018060a01b0383166020830152949350505050565b606081526000610ed1606083018688610d7b565b6001600160a01b03949094166020830152506040015292915050565b60ff851681526001600160a01b0384166020820152608060408201819052600090610f1a90830185610da4565b905082606083015295945050505050565b600082821015610f3d57610f3d610fb0565b500390565b60005b83811015610f5d578181015183820152602001610f45565b838111156103905750506000910152565b600060ff821660ff811415610f8557610f85610fb0565b60010192915050565b600082610fab57634e487b7160e01b600052601260045260246000fd5b500690565b634e487b7160e01b600052601160045260246000fd5b634e487b7160e01b600052604160045260246000fd5b60ff81168114610feb57600080fd5b5056fea2646970667358221220d7d7c6f17a5a2b9aaa1af8a0365b664bee521cbb9513a3526dee9620e92b884e64736f6c63430008070033",
    "sourcePath": "/home/alex/proiecte/p5/contracts/FlightSuretyApp.sol",
    "compiler": {
        "name": "solc",
        "version": "0.8.7+commit.e28d00a7"
    },
    "functionHashes": {
        "AIRLINE_REGISTRATION_FEE()": "d8f73ca5",
        "INSURANCE_PRICE_LIMIT()": "29e18e5d",
        "MIN_MULTIPARTY_AIRLINE()": "872d6be4",
        "MULTIPARTY_QUOTA()": "dcb2dedb",
        "REGISTRATION_FEE()": "64b4f751",
        "fetchFlightStatus(address,string,uint256)": "f83f11c0",
        "getMyIndexes()": "5f1cc0e6",
        "isOperational()": "cd905dff",
        "registerAirline(string,address)": "0e2c4129",
        "registerFlight(string,address,uint256)": "538a0d9c",
        "registerOracle()": "339d2590",
        "submitOracleResponse(uint8,address,string,uint256,uint8)": "c10f2700",
        "test()": "f8a8fd6d"
    },
    "gasEstimates": {
        "creation": {
            "codeDepositCost": "826400",
            "executionCost": "infinite",
            "totalCost": "infinite"
        },
        "external": {
            "AIRLINE_REGISTRATION_FEE()": "217",
            "INSURANCE_PRICE_LIMIT()": "218",
            "MIN_MULTIPARTY_AIRLINE()": "227",
            "MULTIPARTY_QUOTA()": "248",
            "REGISTRATION_FEE()": "306",
            "fetchFlightStatus(address,string,uint256)": "infinite",
            "getMyIndexes()": "infinite",
            "isOperational()": "2359",
            "registerAirline(string,address)": "infinite",
            "registerFlight(string,address,uint256)": "infinite",
            "registerOracle()": "infinite",
            "submitOracleResponse(uint8,address,string,uint256,uint8)": "infinite",
            "test()": "infinite"
        },
        "internal": {
            "generateIndexes(address)": "infinite",
            "getFlightKey(address,string memory,uint256)": "infinite",
            "getRandomIndex(address)": "infinite",
            "processFlightStatus(address,string memory,uint256,uint8)": "infinite"
        }
    }
}